:03000000020003F8
:0C000300787FE4F6D8FD75810902004A00
:0400FA0002080000F8
:1000BD00E4FDFCC3ED9FEC9E5015E4FBFA0BBB0079
:0F00CD00010ABA04F8BBFBF50DBD00010C80E47D
:0100DC002201
:1000DD002094177F147E001200BD20940D3094FDE6
:0D00ED007F147E001200BD7F01227F0022E3
:10008F00D2A01200DDEF6011E509450870047F0171
:10009F0080027F007508008F09E5094508600BB2E3
:0E00AF00A07F327E001200BD80D8D2A080D487
:10000F0002008FE493A3F8E493A34003F68001F278
:10001F0008DFF48029E493A3F85407240CC8C333F2
:10002F00C4540F4420C8834004F456800146F6DFC1
:10003F00E4800B01020408102040809000FAE47E57
:10004F00019360BCA3FF543F30E509541FFEE493B6
:10005F00A360010ECF54C025E060A840B8E493A37D
:10006F00FAE493A3F8E493A3C8C582C8CAC583CAA8
:10007F00F0A3C8C582C8CAC583CADFE9DEE780BE60
:0100FE000001
:00000001FF
