:0300000002000EED
:0C000E00787FE4F6D8FD758113020055E0
:1000C2000A0A3F065B4F666D7D077F6F02080000DC
:1000D300758906758CFF758AFFD2A9D2AFD28C229F
:10009A00740A2509F8E6F5A0E509640A450870041A
:0500AA00F508F5092234
:080003001200D312009A80FBE9
:03000B000200AF41
:1000AF00C0E00509E50970020508758CFF758AFF28
:0300BF00D0E0325C
:10001A00020003E493A3F8E493A34003F68001F2F9
:10002A0008DFF48029E493A3F85407240CC8C333E7
:10003A00C4540F4420C8834004F456800146F6DFB6
:10004A00E4800B01020408102040809000C2E47E84
:10005A00019360BCA3FF543F30E509541FFEE493AB
:10006A00A360010ECF54C025E060A840B8E493A372
:10007A00FAE493A3F8E493A3C8C582C8CAC583CA9D
:10008A00F0A3C8C582C8CAC583CADFE9DEE780BE55
:0100D200002D
:00000001FF
